S00E00005072756562612E73726563B7
S11300000C9434000C9451000C9451000C94510045
S11300100C9483000C9451000C9451000C945100E6
S11300200C9451000C9451000C9451000C94510008
S11300300C9451000C9451000C9451000C945100F8
S11300400C94C5000C9451000C9451000C94510074
S11300500C9451000C9451000C9451000C945100D8
S11300600C9451000C94510011241FBECFEFD8E022
S1130070DEBFCDBF11E0A0E0B1E0EEE6F2E002C0E9
S113008005900D92A831B107D9F721E0A8E1B1E0BC
S113009001C01D92AF31B207E1F70E9475000C94C4
S11300A035010C9400008FEF84B98AB994E095B9B6
S11300B017B888B9E8E6F0E0808182608083ECE6D6
S11300C0F0E0808187608083E1E6F0E080818068F1
S11300D08083908385B5836085BD8091160186BD3C
S11300E081E080936E00789408950E94530080917B
S11300F01B018430E0F7FBCFE82FF0E0EB5FFE4F0D
S113010080818BB908951F920F920FB60F9211241C
S11301102F938F939F9396B180911801892780FF25
S113012014C090FD12C020911E0121110EC0209117
S11301301D0121110AC010921B0110921A0125E021
S11301402093150121E020931E0120911D012223FB
S113015091F081FF07C091FD05C020911B012F5F25
S113016020931B0182FF07C092FD05C080911A01F4
S11301708F5F80931A01909318019F918F912F9113
S11301800F900FBE0F901F9018951F920F920FB6ED
S11301900F9211242F933F934F935F936F937F9309
S11301A08F939F93AF93BF93EF93FF938091160127
S11301B086BD8091190181110FC0E0911B01F0E00F
S11301C0E050FF4F80818BB981E085B9809119019E
S11301D08F5F8093190119C0813079F4E0911A017D
S11301E0F0E0E050FF4F80818BB982E085B98091C7
S11301F019018F5F8093190108C0809115010E9435
S11302007C0084E085B91092190180911E0181302F
S113021049F480911D01811105C080911C018F5FFB
S113022080931C0180911C01843671F48091150126
S113023081508093150110921C01811105C0109208
S11302401E0181E080931D01FF91EF91BF91AF9159
S11302509F918F917F916F915F914F913F912F91DA
S11102600F900FBE0F901F901895F894FFCFCB
S113026E000804020181CF9286CCA4A08F808488DA
S10B027EE0B1C2B0B805640050
S9030000FC
