S00D00004D616E646F2E7372656328
S11300000C9434000C9449000C9449000C9449005D
S11300100C9449000C9463000C9449000C9449001E
S11300200C9449000C9449000C9449000C94490028
S11300300C9449000C9449000C9449000C94490018
S11300400C9449000C9449000C9449000C94490008
S11300500C9449000C9449000C9449000C944900F8
S11300600C9449000C94490011241FBECFEFD8E032
S1130070DEBFCDBF11E0A0E0B1E0ECEBF1E002C0E7
S113008005900D92A231B107D9F70E9460000C943B
S1130090DC000C940000F8948AB183708AB98BB1A7
S11300A08C6F8BB9E8E6F0E0808184608083EDE6B4
S11300B0F0E080818C6F80830E94A9007894089579
S11300C00E944B00FFCF1F920F920FB60F92112484
S11300D02F933F934F935F936F937F938F939F934C
S11300E0AF93BF93EF93FF934A9904C080E091E0EC
S11300F00E94C9004B9904C083E091E00E94C900AA
S11301004C9904C086E091E00E94C9004D9904C056
S113011089E091E00E94C9004E9904C08CE091E00E
S11301200E94C9004F9904C08FE091E00E94C90069
S1130130FF91EF91BF91AF919F918F917F916F91BB
S11301405F914F913F912F910F900FBE0F901F9091
S113015018958AB18E7F8AB98AB182608AB9E0EC37
S1130160F0E0108280818260808388E98093C100FE
S113017086E08093C2008FEC90E09093C50080935A
S1130180C40008959091C00095FFFCCF8093C600F1
S113019008950F931F93CF938C01C0E003C00E9476
S11301A0C200CF5FF801EC0FF11D80818111F7CF00
S10F01B0CF911F910F910895F894FFCF98
S11301BC550A00440A00520A004C0A00410A004243
S10501CC0A0023
S9030000FC
