S00F00004D61657374726F2E737265633A
S11300000C94B1000C94CE000C94CE000C94CE0051
S11300100C94CE000C94CE000C94CE000C94CE0024
S11300200C94CE000C94CE000C94CE000C94CE0014
S11300300C94CE000C94CE000C94CE000C94CE0004
S11300400C94CE000C94CE000C94CE000C94CE00F4
S11300500C94CE000C94CE000C94CE000C94CE00E4
S11300600C94CE000C94CE0000407A10F35A00A0F9
S1130070724E18090010A5D4E80000E8764817006D
S113008000E40B54020000CA9A3B000000E1F505AD
S1130090000080969800000040420F000000A086F7
S11300A001000000102700000000E8030000000029
S11300B06400000000000A000000000001000000CD
S11300C000002C76D888DC674F0823DFC1DFAE59E7
S11300D0E1B1B796E5E3E453C63AE651997696E87A
S11300E0E6C28426EB898C9B62ED407C6FFCEFBCFE
S11300F09C9F40F2BAA56FA5F490055A2AF75C9329
S11301006B6CF9676DC11BFCE0E40D47FEF520E65E
S1130110B500D0ED902E0300943577050080841E41
S1130120080000204E0A000000C80C333333330F9C
S1130130986E12831141EF8D2114893BE65516CF39
S1130140FEE6DB18D1844B381BF77C1D901DA4BB45
S1130150E424203284725E228100C9F124ECA1E5FA
S11301603D2711241FBECFEFD8E0DEBFCDBF11E085
S1130170A0E0B1E0E6E1F3E102C005900D92A43104
S1130180B107D9F721E0A4E1B1E001C01D92AD337C
S1130190B207E1F70E9444020C9489090C94000010
S11301A00F931F93CF938B019C01C42F87B18F7C36
S11301B087B9443079F018F4413031F023C040312C
S11301C091F04034C9F01EC0E9EBF0E080818C7FEF
S11301D080831EC0E9EBF0E080818D7F8083808185
S11301E08260808315C0E9EBF0E080818E7F80839C
S11301F08081826080830CC0E9EBF0E080818360C1
S1130200808306C0E9EBF0E080818C7F8083C1E0CD
S113021060E074E284EF90E0A90198010E94DE0698
S1130220CA01B90160517109810991094C2F50E04B
S11302309A01220F331F032E000C440B550B0E940E
S1130240DE062093B800ECEBF0E0808184608083CC
S1130250CF911F910F91089584EA8093BC008091FF
S1130260BC008823E4F79091B900987F81E098302E
S113027009F080E0089584EA8093BC008091BC007A
S11302808823E4F79091B900987F81E0903109F0D8
S113029080E0089584E98093BC008091BC0084FDD3
S11302A0FCCF08958093BB0084E88093BC008091C8
S11302B0BC008823E4F78091B900887F883121F05D
S11302C0883219F481E0089581E00895FC016623E1
S11302D021F084EC8093BC0003C084E88093BC00CC
S11302E09091BC009923E4F79091B900987F66231C
S11302F011F0903549F4611102C0983539F48091B8
S1130300BB00808381E0089580E0089580E0089533
S1130310282F30E0220F331F220F331F829586953A
S1130320869583709BB19370292B2BB995B19C7FD3
S1130330892B85B9089598B19E7F98B90E94880148
S113034088B1846088B98FE99FE00197F1F700C014
S1130350000088B18B7F88B908958AB18C6F8AB9FF
S11303608BB183708BB984B1836084B985B18C7F80
S113037085B987B1876087B988B1887F88B980E0FB
S11303800E9488012FEF89EF90E021508040904037
S1130390E1F700C0000080E30E949B018FE19EE42E
S11303A00197F1F700C0000080E30E949B018FE9F0
S11303B09FE00197F1F700C0000080E30E949B01D9
S11303C08FE19EE40197F1F700C0000088E30E94EA
S11303D09B0188E00E949B0181E00E949B0186E0D2
S11303E00E949B018CE00E949B01089598B191604A
S11303F098B90E94880188B1846088B98FE891E037
S11304000197F1F700C0000088B18B7F88B9089587
S1130410613021F481580E949B010895623019F4DF
S113042081540E949B0108950F931F93CF93DF93F0
S11304308C01C0E0D0E003C00E94F6012196F801CF
S1130440EC0FFD1F80818111F7CFDF91CF911F91B8
S11304500F910895F8948AB18C6F8AB98BB1837027
S11304608BB984B1836084B985B18C7F85B941E04F
S113047060EA76E881E090E00E94D0000E94740473
S11304800E94AD0178940895CF92DF92EF92FF928B
S11304900F931F93CF930E942A0261E081E00E9490
S11304A0080280E091E00E94140262E083E00E946E
S11304B008028FED0E94F60183E40E94F60161E0D8
S11304C086E00E94080284E091E00E94140262E047
S11304D08AE00E94080287E60E94F60161E08CE04F
S11304E00E94080288E091E00E9414020E942C01FC
S11304F080E70E94520181EE0E94520188E00E942E
S1130500520180E00E9452010E944A010E942C0183
S1130510882309F4E1C180E60E945201811103C0DD
S11305200E944A01D9C182E50E9452010E943B0106
S1130530811103C00E944A01CFC181E60E94520189
S1130540811103C00E944A01C7C160E08CE191E0BF
S11305500E94660160911C016093140170E080E0C8
S113056090E00E94BA050CE211E020E041E00E9414
S1130570000762E081E00E940802C8010E941402A0
S11305808CE091E00E949404C8010E9494048EE0DF
S113059091E00E9494040E943B01811103C00E94D7
S11305A04A019AC180E60E945201811103C00E944F
S11305B04A0192C186E50E945201809115010E9470
S11305C052010E944A010E942C01882309F484C12B
S11305D080E80E945201811103C00E944A017CC13B
S11305E082E50E9452010E943B01811103C00E94D6
S11305F04A0172C181E80E945201811103C00E9424
S11306004A016AC161E08CE191E00E946601809137
S11306101C0180931B0160E08CE191E00E94660163
S113062080911C0180931A0160911B0170E0762F68
S11306306627682B80E090E00E94BA05609316015B
S11306407093170180931801909319010E948B05F0
S1130650052E59E0660F771F881F991F5A95D1F709
S1130660502D24EF31E040E050E00E94DE066901A5
S11306707A01C11422E0D206E104F10428F0C12C6D
S1130680D12C76016894D1F80E943B01811103C0FA
S11306900E944A0121C180E80E945201811103C0D5
S11306A00E944A0119C183E50E9452018D2D0E94C6
S11306B052018C2D0E94520180E50E9452018091CA
S11306C014018F3120F481E00E94520103C080E0C4
S11306D00E9452010E944A01609116017091170113
S11306E080911801909119010CE211E020E043E09F
S11306F00E94000762E086E00E940802C8010E948E
S1130700140280E191E00E949404C8010E949404C0
S11307108EE091E00E9494040E942C01882309F445
S1130720DBC080E70E945201811103C00E944A018C
S1130730D3C08CEA0E94520183E30E94520180E0FC
S11307400E9452010E944A018FEF91EE24E08150F1
S113075090402040E1F700C000000E942C0181116C
S113076003C00E944A01B8C081E70E94520181116E
S11307700CC00E944A01B0C08C2F90E061E0835EFF
S11307809E4F0E946601CF5F01C0C0E0C530A0F358
S113079060E082E291E00E9466010E944A01EDE17C
S11307A0F1E06181862F90E0A0E0B0E0AC01BD01F2
S11307B0032E3CE0440F551F661F771F3A95D1F76F
S11307C0302D828190E0A0E0B0E0880F991FAA1F2D
S11307D0BB1F880F991FAA1FBB1F880F991FAA1F31
S11307E0BB1F880F991FAA1FBB1F842B952BA62BF9
S11307F0B72B238122952F70BC01CD01622B60930E
S113080028017093290180932A0190932B010E945F
S1130810BA0520E030E048EC52E40E94710620E082
S113082030E040E855E30E9471066B017C0160935F
S1130830240170932501809326019093270120E0E1
S113084030E04CE552E40E94140518161CF0109296
S1130850150127C020E030E04AEA52E4C701B6019E
S11308600E946C06882324F08FEF8093150119C031
S113087020E030E04CE552E4C701B6010E94A70431
S113088020E030E040E752E40E94710620E030E0CE
S113089040EF51E40E9419050E948B056D5360934B
S11308A015010CE211E021E045E0C701B6010E9408
S11308B0000762E08BE00E940802C8010E94140253
S11308C082E191E00E949404C8010E9494048EE0A5
S11308D091E00E9494041ACECF911F910F91FF9042
S11308E0EF90DF90CF9008958AB18E7F8AB98AB154
S11308F082608AB9E0ECF0E01082808182608083BB
S113090088E98093C10086E08093C2008FEC90E078
S11309109093C5008093C40008959091C00095FF02
S1130920FCCF8093C60008950F931F93CF938C013F
S1130930C0E003C00E948D04CF5FF801EC0FF11DED
S113094080818111F7CFCF911F910F910895505855
S1130950BB27AA270E94BF040C9432060E942406D7
S113096038F00E942B0620F039F49F3F19F426F446
S11309700C9421060EF4E095E7FB0C941B06E92F7A
S11309800E94430658F3BA17620773078407950752
S113099020F079F4A6F50C9465060EF4E0950B2E80
S11309A0BA2FA02D0B01B90190010C01CA01A001BD
S11309B01124FF27591B99F0593F50F4503E68F118
S11309C01A16F040A22F232F342F4427585FF3CF59
S11309D0469537952795A795F0405395C9F77EF42A
S11309E01F16BA0B620B730B840BBAF09150A1F073
S11309F0FF0FBB1F661F771F881FC2F70EC0BA0FF9
S1130A00621F731F841F48F4879577956795B79580
S1130A10F7959E3F08F0B0CF9395880F08F099277B
S1130A20EE0F9795879508950E94F70508F481E0E5
S1130A3008950E942D050C9432060E942B0658F04E
S1130A400E94240640F029F45F3F29F00C941B0611
S1130A5051110C9466060C9421060E94430668F317
S1130A609923B1F3552391F3951B550BBB27AA2763
S1130A7062177307840738F09F5F5F4F220F331F9D
S1130A80441FAA1FA9F335D00E2E3AF0E0E832D065
S1130A9091505040E695001CCAF72BD0FE2F29D068
S1130AA0660F771F881FBB1F261737074807AB073A
S1130AB0B0E809F0BB0B802DBF01FF2793585F4FAF
S1130AC03AF09E3F510578F00C941B060C94660690
S1130AD05F3FE4F3983ED4F3869577956795B79591
S1130AE0F7959F5FC9F7880F911D9695879597F99C
S1130AF00895E1E0660F771F881FBB1F6217730715
S1130B008407BA0720F0621B730B840BBA0BEE1F29
S1130B1088F7E09508950E944B0688F09F5798F057
S1130B20B92F9927B751B0F0E1F0660F771F881FEE
S1130B30991F1AF0BA95C9F714C0B13091F00E9408
S1130B406506B1E008950C946506672F782F882711
S1130B50B85F39F0B93FCCF3869577956795B3952F
S1130B60D9F73EF490958095709561957F4F8F4F9E
S1130B709F4F0895E89409C097FB3EF490958095A3
S1130B80709561957F4F8F4F9F4F9923A9F0F92F4F
S1130B9096E9BB279395F695879577956795B795CD
S1130BA0F111F8CFFAF4BB0F11F460FF1BC06F5FB3
S1130BB07F4F8F4F9F4F16C0882311F096E911C0C5
S1130BC0772321F09EE8872F762F05C0662371F0E6
S1130BD096E8862F70E060E02AF09A95660F771FFA
S1130BE0881FDAF7880F9695879597F90895990FD6
S1130BF00008550FAA0BE0E8FEEF16161706E807E3
S1130C00F907C0F012161306E407F50798F0621B03
S1130C10730B840B950B39F40A2661F0232B242BD8
S1130C20252B21F408950A2609F4A140A6958FEFF7
S1130C30811D811D089597F99F6780E870E060E049
S1130C4008959FEF80EC089500240A941616170661
S1130C5018060906089500240A94121613061406A9
S1130C6005060895092E0394000C11F4882352F00C
S1130C70BB0F40F4BF2B11F460FF04C06F5F7F4FC4
S1130C808F4F9F4F089557FD9058440F551F59F0AB
S1130C905F3F71F04795880F97FB991F61F09F3F65
S1130CA079F087950895121613061406551FF2CF8E
S1130CB04695F1DF08C0161617061806991FF1CFDE
S1130CC086957105610508940895E894BB27662705
S1130CD07727CB0197F908950E94F70508F48FEF61
S1130CE008950E9484060C9432060E94240638F06B
S1130CF00E942B0620F0952311F00C941B060C94F3
S1130D00210611240C9466060E94430670F3959FF5
S1130D10C1F3950F50E0551F629FF001729FBB27EE
S1130D20F00DB11D639FAA27F00DB11DAA1F649F8A
S1130D306627B00DA11D661F829F2227B00DA11D3D
S1130D40621F739FB00DA11D621F839FA00D611DC3
S1130D50221F749F3327A00D611D231F849F600DE4
S1130D60211D822F762F6A2F11249F5750409AF00D
S1130D70F1F088234AF0EE0FFF1FBB1F661F771F99
S1130D80881F91505040A9F79E3F510580F00C9464
S1130D901B060C9466065F3FE4F3983ED4F38695F5
S1130DA077956795B795F795E7959F5FC1F7FE2B04
S1130DB0880F911D9695879597F90895A1E21A2EAB
S1130DC0AA1BBB1BFD010DC0AA1FBB1FEE1FFF1FEB
S1130DD0A217B307E407F50720F0A21BB30BE40B3B
S1130DE0F50B661F771F881F991F1A9469F7609582
S1130DF07095809590959B01AC01BD01CF0108953C
S1130E00EF920F931F93CF93DF93E80147FD02C046
S1130E1034E001C034E1042E000C550B57FF03C02D
S1130E20519541955109E32E022F242FAE010E94C2
S1130E302007CE01DF91CF911F910F91EF9008957C
S1130E40A9E0B0E0E6E2F7E00C9458096A01122F39
S1130E50B02E2BE3201720F0FF24F394F00E02C0F1
S1130E602CE3F22E0F2D27E0AE014F5F5F4F0E945F
S1130E707A08BC014981842F8970813031F0E1FC0A
S1130E8006C0E0FE06C090E205C09DE203C09BE2FE
S1130E9001C090E05E2D507143FF3CC0911102C02F
S1130EA083E001C084E0811718F4212F281B01C0BE
S1130EB020E051110BC0F601822F30E2882319F093
S1130EC031938150FBCFC20ED11C20E0992329F02D
S1130ED0D6019C93F60131966F01C6010396E2FE9A
S1130EE00AC03EE4D6013C9341E411964C93119719
S1130EF012963C9306C03EE6F601308341E64183F8
S1130F003283FC01322F40E2332309F442C041937F
S1130F103150FACF42FF44C0911102C083E001C0B6
S1130F2084E0811718F4212F281B01C020E05111FF
S1130F300BC0F601822F30E2882319F031938150DF
S1130F40FBCFC20ED11C20E0992329F0D6019C933B
S1130F50F60131966F01C6010396E2FE0BC039E437
S1130F60D6013C933EE411963C93119736E41296D5
S1130F703C9307C039E6F60130833EE6318336E61A
S1130F803283FC01322F40E2332319F04193315074
S1130F90FBCFFC01E20FF11D10828EEF9FEFA6C084
S1130FA021E030E0911102C020E030E0161617066F
S1130FB01CF4FB01319602C0E1E0F0E02E0F3F1F6C
S1130FC0BB2021F0EB2DF0E0319602C0E0E0F0E030
S1130FD02E0F3F1FE12FF0E02E173F071CF4121BCA
S1130FE0212F01C020E08E2D887159F4F601822F43
S1130FF030E2882319F031938150FBCFC20ED11C0B
S113100020E0992329F0D6019C93F60131966F01D3
S113101051110BC0F601822F90E3882319F09193AC
S11310208150FBCFC20ED11C20E00F2D060F9A81F8
S1131030342F307144FF03C0913309F4015010166A
S113104024F4093018F008E001C001E0AB0177FF97
S113105002C040E050E0FB01E41BF50BA1E0B0E06E
S1131060AC0FBD1FEA0FFB1F8EE2A82E4B01801AA6
S113107091080B2D10E01195019511094F3FBFEF19
S11310805B0721F4D601AC9211966D0164177507C4
S11310902CF08416950614F4818101C080E341503C
S11310A051093196D60111967D014017510724F05C
S11310B0D6018C936701E2CF6417750739F4963330
S11310C020F4953319F4311101C081E3F6018083D2
S11310D0F701822F90E2882319F091938150FBCF7E
S11310E0F701E20FF11D108280E090E02996ECE018
S11310F00C947409283008F027E03327DA01990F9B
S1131100311D87FD916000966105710539F43260E7
S11311102E5F3D9330E32A95E1F708959F3F30F029
S113112080387105610509F03C5F3C5F3D93913067
S113113008F08068911DDF93CF931F930F93FF9264
S1131140EF92192F987F9695E92F96959695E90F2A
S1131150FF27EE53FF4F99273327EE24FF24A701DF
S1131160E70105900894079428F4360FE71EF81E4B
S1131170491F511D660F771F881F991F0694A1F7F9
S11311800590079428F4E70EF81E491F561FC11D49
S1131190770F881F991F661F0694A1F7059007947F
S11311A028F4F80E491F561FC71FD11D880F991F19
S11311B0661F771F0694A1F70590079420F4490F42
S11311C0561FC71FD81F990F661F771F881F0694C5
S11311D0A9F784911095177041F0D695C795579546
S11311E04795F794E7941A95C1F7E8E6F0E0689418
S11311F01590159135916591959105907FE27395C0
S1131200E118F10A430B560BC90BD009C0F7E10CE6
S1131210F11E431F561FC91FD01D7EF4703311F4F5
S11312208A95E6CFE894015030F0080F0AF40027BD
S1131230021708F4202F2395022F7A3328F079E33C
S11312407D932A95E9F710C07D932A9589F6069433
S113125097956795379517951794E118F10A430BFD
S1131260560BC90BD00998F023957E9173957A3368
S113127008F070E37C932013B8F77E9170617D933E
S113128030F0839571E37D9370E32A95E1F711249F
S1131290EF90FF900F911F91CF91DF91992787FDD8
S11312A0909508952F923F924F925F926F927F9202
S11312B08F929F92AF92BF92CF92DF92EF92FF9262
S11312C00F931F93CF93DF93CDB7DEB7CA1BDB0B0E
S11312D00FB6F894DEBF0FBECDBF09942A883988B3
S11312E048885F846E847D848C849B84AA84B984BA
S11312F0C884DF80EE80FD800C811B81AA81B981C6
S1131300CE0FD11D0FB6F894DEBF0FBECDBFED01D9
S10913100895F894FFCFDC
S113131654313A0050313A0048313A0054000A0038
S10713265000480027
S9030000FC
